:1000000045C0000058C0000056C0000054C00000A9
:1000100052C0000050C000004EC000004CC00000A4
:100020004AC0000048C0000046C0000044C00000B4
:1000300042C0000040C000003EC000003CC00000C4
:100040003AC0000038C0000036C0000034C00000D4
:1000500032C0000030C000002EC000002CC00000E4
:100060002AC0000028C0000026C0000024C00000F4
:1000700022C0000020C000001EC000001CC0000004
:100080001AC0000018C0000016C0000011241FBED6
:10009000CFEFD0E1DEBFCDBF11E0A0E0B1E0E0E7FF
:1000A000F1E000E00BBF02C007900D92AC30B10749
:1000B000D9F74FD05BC0A4CF181619066CF420E016
:1000C00030E0EFECF7E03197F1F700C000002F5F70
:1000D0003F4F82179307A9F70895AB9A81E090E00C
:1000E000EBDFAB9881E090E0E7CF0895CF938FEFFF
:1000F00084BB15BAC0E2C5BBF0DFC5BBEEDF80E84C
:1001000085BBEBDF15BAE9DF80EF85BBE6DF15BA0B
:10011000E4DF80E685BBE1DFCF910895CF93C82F60
:1001200085BBAA9ADADFC295C07FC5BBAA9AD5DF84
:10013000CF910895CF93DF93EC018881882331F02C
:10014000219690E0EBDF89918111FBCFDF91CF9178
:1001500008958FEF81BBCADF80E091E0EBDF82B3CF
:10016000805882BB8AEF90E0A7DFF9CFF894FFCFE9
:0C017000594544492C20594F415245008C
:00000001FF
