:1000000045C0000058C0000056C0000054C00000A9
:1000100052C000006FC0000099C000004CC000003A
:100020004AC0000048C0000046C0000044C00000B4
:1000300042C0000040C000003EC000003CC00000C4
:100040003AC0000038C0000036C0000034C00000D4
:1000500032C0000030C000002EC000002CC00000E4
:100060002AC0000028C0000026C0000024C00000F4
:1000700022C0000020C000001EC000001CC0000004
:100080001AC0000018C0000016C0000011241FBED6
:10009000CFEFD0E1DEBFCDBF11E0A0E0B1E0E4EAF8
:1000A000F1E000E00BBF02C007900D92A030B10755
:1000B000D9F702D075C0A4CF80EF81BB12BAEAE6AF
:1000C000F0E080818B60808389B7836089BF7894FA
:1000D000FFCF181619066CF420E030E0EFECF7E0E3
:1000E0003197F1F700C000002F5F3F4F8217930751
:1000F000A9F708951F920F920FB60F9211240BB615
:100100000F922F933F934F935F936F937F938F93B0
:100110009F93AF93BF93EF93FF9382B38F6D82BB97
:1001200084E690E0D6DFFF91EF91BF91AF919F9170
:100130008F917F916F915F914F913F912F910F9090
:100140000BBE0F900FBE0F901F9018951F920F922D
:100150000FB60F9211240BB60F922F933F934F932C
:100160005F936F937F938F939F93AF93BF93EF931F
:10017000FF93959884E690E0ACDFFF91EF91BF91FB
:10018000AF919F918F917F916F915F914F913F912F
:100190002F910F900BBE0F900FBE0F901F901895D0
:0401A000F894FFCF01
:00000001FF
